S00B00004144432E7372656351
S11300000C942A000C943F000C943F000C943F0085
S11300100C943F000C943F000C943F000C943F0060
S11300200C943F000C943F000C943F000C943F0050
S11300300C943F000C943F000C943F000C943F0040
S11300400C943F000C943F000C943F000C943F0030
S11300500C943F0011241FBECFE5D4E0DEBFCDBF1A
S113006010E0A0E6B0E0EEEAF1E002C005900D92E7
S1130070A837B107D9F70E946C000C94D5000C94F2
S113008000008AB188618AB980B5866880BD88E03D
S113009089B908955D9BFECF8CB90895FC019081C8
S11300A0992339F031965D9BFECF9CB991919111C2
S11300B0FACF089580E487B986E886B90895806404
S11300C087B980E38A95F1F786B1886486B9349B51
S11300D0FECF84B195B10895CF93DF9300D000D0C3
S11300E01F92CDB7DEB70E9441000E945A0080E003
S11300F00E945F008C012FEF83ED90E3215080403C
S11301009040E1F700C000008AE00E944A0080E6C7
S113011090E00E944E002FEF83ED90E32150804049
S11301209040E1F700C000004AE0BE016F5F7F4FDE
S1130130C8010E94A00081E790E00E944E00D7CF42
S1130140BB274A3031F4992322F4BDE2909581957E
S11301509F4F0C94AC00BB27FB015527AA27880F9F
S1130160991FAA1FA41710F0A41B83955051B9F727
S1130170A05DAA3308F0A95DA193009779F7B111A6
S1130180B1931192CB010C94C500DC01FC01672FE3
S113019071917723E1F7329704C07C916D9370835A
S11101A06291AE17BF07C8F30895F894FFCF1D
S11301AE53656E736F722056616C75652069733A70
S10B01BE0073656E56616C00CC
S9030000FC
