:100000000C942A000C9434000C9434000C943400AA
:100010000C9434000C9434000C9434000C94340090
:100020000C9434000C9434000C9434000C94340080
:100030000C9434000C9434000C9434000C94340070
:100040000C9434000C9434000C9434000C94340060
:100050000C94340011241FBECFE5D4E0DEBFCDBF29
:100060000E9436000C9472000C94000080E88ABB59
:100070008FEF87BB81BB90EF8FE020E898BB3FEF0D
:1000800043ED50E3315040405040E1F700C00000E4
:1000900088BB3FEF43ED50E3315040405040E1F723
:1000A00000C000002BBB3FEF49E658E13150404013
:1000B0005040E1F700C000001BBA3FEF43EC59E0AD
:1000C000315040405040E1F700C0000092BB3FEF8C
:1000D00043ED50E3315040405040E1F700C0000094
:0800E00082BBCCCFF894FFCFE6
:00000001FF
