S00E000042757A7A65722E7372656394
S11300000C942A000C9434000C9434000C943400A6
S11300100C9434000C9434000C9434000C9434008C
S11300200C9434000C9434000C9434000C9434007C
S11300300C9434000C9434000C9434000C9434006C
S11300400C9434000C9434000C9434000C9434005C
S11300500C94340011241FBECFE5D4E0DEBFCDBF25
S11300600E9436000C944D000C94000080E88ABB7A
S11300708BBB2FEF33ED90E3215030409040E1F7FC
S113008000C000001BBA2FEF33ED90E32150304045
S11100909040E1F700C00000EBCFF894FFCFE2
S9030000FC
