S00C0000554152542E73726563DC
S11300000C942A000C943F000C943F000C943F0085
S11300100C943F000C943F000C943F000C943F0060
S11300200C943F000C943F000C943F000C943F0050
S11300300C943F000C943F000C943F000C943F0040
S11300400C943F000C943F000C943F000C943F0030
S11300500C943F0011241FBECFE5D4E0DEBFCDBF1A
S113006010E0A0E6B0E0EEEFF0E002C005900D92E3
S1130070A237B107D9F70E945A000C947D000C9462
S113008000008AB188618AB980B5866880BD88E03D
S113009089B908955D9BFECF8CB90895FC019081C8
S11300A0992339F031965D9BFECF9CB991919111C2
S11300B0FACF08950E9441008AE50E944A002FEF7A
S11300C083ED90E3215080409040E1F700C00000B0
S11300D08AE00E944A0080E690E00E944E002FEFE2
S11300E083ED90E3215080409040E1F700C0000090
S11100F080E790E00E944E00DFCFF894FFCF2F
S11300FE48656C6C6F2066726F6D205541525400CA
S105010E0D00DE
S9030000FC
