S00D000055415254322E73726563A9
S11300000C942A000C943F000C943F000C943F0085
S11300100C943F000C943F000C943F000C943F0060
S11300200C943F000C943F000C943F000C943F0050
S11300300C943F000C943F000C943F000C943F0040
S11300400C943F000C943F000C943F000C943F0030
S11300500C943F0011241FBECFE5D4E0DEBFCDBF1A
S113006010E0A0E6B0E0E6E1F1E002C005900D92F8
S1130070AC36B107D9F70E9466000C9489000C9441
S113008000001BB810BC88E089B988E18AB986E809
S113009080BD08955D9BFECF8CB90895CF93DF9307
S11300A0EC018881882331F021960E944A008991CD
S11300B08111FBCF2FEF81EE94E0215080409040DE
S11300C0E1F700C00000DF91CF9108950E94410044
S11300D081E40E944A002FEF81EE94E02150804099
S11300E09040E1F700C0000089E00E944A0080E6E9
S11300F090E00E944E002FEF83ED90E3215080406A
S11301009040E1F700C0000089E690E00E944E00B4
S1090110DFCFF894FFCFDD
S10F01165541525420322E30000A0000E3
S9030000FC
