:100000000C942A000C9434000C9434000C943400AA
:100010000C9434000C9434000C9434000C94340090
:100020000C9434000C9434000C9434000C94340080
:100030000C9434000C9434000C9434000C94340070
:100040000C9434000C9434000C9434000C94340060
:100050000C94340011241FBECFE5D4E0DEBFCDBF29
:100060000E9436000C944F000C9400008FEF81BB6F
:1000700090EF8FE092BB2FEF33ED40E32150304003
:100080004040E1F700C0000082BB2FEF33ED40E3BA
:10009000215030404040E1F700C00000EBCFF89421
:0200A000FFCF90
:00000001FF
