:100000000C942A000C9447000C9447000C94470071
:100010000C9447000C9447000C9447000C94470044
:100020000C9447000C9447000C9447000C94470034
:100030000C9447000C9447000C9447000C94470024
:100040000C9447000C9447000C9447000C94470014
:100050000C94470011241FBECFE5D4E0DEBFCDBF16
:1000600010E0A0E6B0E0EEE1F2E002C005900D92F3
:10007000A638B107D9F720E0A6E8B0E001C01D928C
:10008000A638B207E1F70E94AD000C940D010C9464
:1000900000001BB810BC88E089B988E18AB986E8FD
:1000A00080BD08955D9BFECF8CB90895CF93DF93FB
:1000B000EC018881882331F021960E9452008991B9
:1000C0008111FBCF2FEF81EE94E0215080409040D2
:1000D000E1F700C00000DF91CF910895CF93DF9347
:1000E000282F39E2839F312D112432953F704CE93E
:1000F0004303C0011124820F911D6AE070E00E9449
:10010000E500D62F205DC22F349FC00D112480E35F
:10011000830F0E94520080E38D0F0E945200DD0F7A
:100120008D2F880F880FD80F8C2F8D1B0E945200A7
:10013000DF91CF9108955F9BFECF8CB1089590E63B
:1001400097B997B1892B87B9369A8FE99FE00197C4
:10015000F1F700C0000085B108950E94490086E8CB
:1001600086B90E949B00813411F580E00E949F00B7
:10017000C82F2FEF81EE94E0215080409040E1F7AE
:1001800000C0000080E690E00E9456008C2F0E9484
:100190006E0082E790E00E9456002FEF83ED90E31F
:1001A000215080409040E1F700C00000DACF84E7A2
:1001B00090E00E9456002FEF83ED90E321508040A5
:1001C0009040E1F700C00000CCCF97FB072E16F45B
:1001D000009407D077FD09D00E94F90007FC05D0F4
:1001E0003EF4909581959F4F0895709561957F4F4E
:1001F0000895AA1BBB1B51E107C0AA1FBB1FA6176E
:10020000B70710F0A61BB70B881F991F5A95A9F7BF
:0E02100080959095BC01CD010895F894FFCF24
:10021E0053656E736F722056616C75652069733A03
:10022E0020000A00496E76616C6964204F70746913
:06023E006F6E212121007A
:00000001FF
