S00F0000414443554152542E7372656311
S11300000C942A000C9447000C9447000C9447006D
S11300100C9447000C9447000C9447000C94470040
S11300200C9447000C9447000C9447000C94470030
S11300300C9447000C9447000C9447000C94470020
S11300400C9447000C9447000C9447000C94470010
S11300500C94470011241FBECFE5D4E0DEBFCDBF12
S113006010E0A0E6B0E0E2EFF1E002C005900D92EE
S1130070A437B107D9F720E0A4E7B0E001C01D928E
S1130080A437B207E1F70E94A9000C94F7000C947E
S113009000001BB810BC88E089B988E18AB986E8F9
S11300A080BD08955D9BFECF8CB90895CF93DF93F7
S11300B0EC018881882331F021960E9452008991B5
S11300C08111FBCF2FEF81EE94E0215080409040CE
S11300D0E1F700C00000DF91CF910895CF93DF9343
S11300E0282F39E2839F312D112432953F704CE93A
S11300F04303C0011124820F911D6AE070E00E9445
S1130100CF00D62F205DC22F349FC00D112480E371
S1130110830F0E94520080E38D0F0E945200DD0F76
S11301208D2F880F880FD80F8C2F8D1B0E945200A3
S1130130DF91CF91089590E697B997B1892B87B94C
S1130140369A8FE99FE00197F1F700C0000085B16E
S113015008950E94490086E886B980E00E949B00C9
S1130160C82F2FEF81EE94E0215080409040E1F7BA
S113017000C0000080E690E00E9456008C2F0E9490
S11301806E0082E790E00E9456002FEF83ED90E32B
S1130190215080409040E1F700C00000DECF97FB83
S11301A0072E16F4009407D077FD09D00E94E300CF
S11301B007FC05D03EF4909581959F4F0895709566
S11301C061957F4F0895AA1BBB1B51E107C0AA1F6D
S11301D0BB1FA617B70710F0A61BB70B881F991FE4
S11301E05A95A9F780959095BC01CD010895F8948E
S10501F0FFCF3B
S11301F253656E736F722056616C75652069733A2C
S107020220000A00CA
S9030000FC
