S01200005468696E67537065616B2E7372656324
S11300000C942A000C9447000C9447000C9447006D
S11300100C9447000C9447000C9447000C94470040
S11300200C9447000C9447000C9447000C94470030
S11300300C9447000C9447000C9447000C94470020
S11300400C9447000C9447000C9447000C94470010
S11300500C94470011241FBECFE5D4E0DEBFCDBF12
S113006011E0A0E6B0E0EEECF2E002C005900D92E3
S1130070A431B107D9F721E0A4E1B1E001C01D9298
S1130080A431B207E1F70E94AC000C9465010C9412
S113009000001BB810BC88E089B988E18AB986E8F9
S11300A080BD08955D9BFECF8CB90895CF93DF93F7
S11300B0EC018881882331F021960E9452008991B5
S11300C08111FBCF2FEF81EE94E0215080409040CE
S11300D0E1F700C00000DF91CF910895CF93DF9343
S11300E0282F39E2839F312D112432953F704CE93A
S11300F04303C0011124820F911D6AE070E00E9445
S11301003D01D62F205DC22F349FC00D112480E302
S1130110830F0E94520080E38D0F0E945200DD0F76
S11301208D2F880F880FD80F8C2F8D1B0E945200A3
S1130130DF91CF91089590E697B997B1892B87B94C
S1130140369A2FEF81EE94E0215080409040E1F701
S113015000C0000085B10895CFEFC7BB0E944900DD
S113016086E886B980E690E00E9456002FEF33E2DD
S113017084EF215030408040E1F700C00000C8BB4C
S113018089E690E00E9456008FE788BB80E790E004
S11301900E9456009FEF21EE34E091502040304001
S11301A0E1F700C000008FE388BB8EE790E00E9477
S11301B056008FEF93E224EF815090402040E1F706
S11301C000C000000F2EFFE1EF2EF02D0F2EFFE0F8
S11301D0FF2EF02D07E013E0D1E080E00E949B00A9
S11301E0C82FE8BA8DE990E00E9456003FEF87EAF5
S11301F091E6315080409040E1F700C0000089EC66
S113020090E00E9456002FEF31EE84E02150304000
S11302108040E1F700C00000F8BA89ED90E00E9448
S113022056008C2F0E946E008AE990E00E945600CE
S113023008BB9FEF21EE34E0915020403040E1F7BD
S113024000C0000086E091E00E94560018BB8FEFCA
S113025091EE24E0815090402040E1F700C000007E
S1130260D8BB3FEF89E592E622E0315080409040D0
S11302702040D9F700C00000B0CF97FB072E16F43A
S1130280009407D077FD09D00E94510107FC05D0E6
S11302903EF4909581959F4F0895709561957F4F99
S11302A00895AA1BBB1B51E107C0AA1FBB1FA617B9
S11302B0B70710F0A61BB70B881F991F5A95A9F70B
S11102C080959095BC01CD010895F894FFCF70
S11302CE41542B5253540D0A00415445300D0A002B
S11302DE41542B43574D4F44453D330D0A00415471
S11302EE2B43574A41503D2261736466222C2231BE
S11302FE323334353637383930220D0A0041542B17
S113030E43495053544152543D22544350222C22BB
S113031E6170692E7468696E67737065616B2E63A4
S113032E6F6D222C38300D0A0041542B4349505323
S113033E454E443D35310D0A00474554202F757006
S113034E646174653F6170695F6B65793D4F4C45BF
S113035E4F375744413348544E4A4B5A39266669EF
S113036E656C64313D0041542B434950434C4F530B
S107037E450D0A001B
S9030000FC
